{
  "_format": "hh-sol-artifact-1",
  "contractName": "Market",
  "sourceName": "contracts/market.sol",
  "abi": [
    {
      "anonymous": false,
      "inputs": [
        {
          "indexed": true,
          "internalType": "uint256",
          "name": "offerId",
          "type": "uint256"
        },
        {
          "indexed": true,
          "internalType": "address",
          "name": "seller",
          "type": "address"
        }
      ],
      "name": "OfferCancelled",
      "type": "event"
    },
    {
      "anonymous": false,
      "inputs": [
        {
          "indexed": true,
          "internalType": "uint256",
          "name": "offerId",
          "type": "uint256"
        },
        {
          "indexed": true,
          "internalType": "address",
          "name": "seller",
          "type": "address"
        },
        {
          "indexed": false,
          "internalType": "uint256",
          "name": "amount",
          "type": "uint256"
        },
        {
          "indexed": false,
          "internalType": "uint256",
          "name": "pricePerUnit",
          "type": "uint256"
        }
      ],
      "name": "OfferCreated",
      "type": "event"
    },
    {
      "anonymous": false,
      "inputs": [
        {
          "indexed": true,
          "internalType": "uint256",
          "name": "offerId",
          "type": "uint256"
        },
        {
          "indexed": true,
          "internalType": "address",
          "name": "buyer",
          "type": "address"
        },
        {
          "indexed": false,
          "internalType": "uint256",
          "name": "amount",
          "type": "uint256"
        },
        {
          "indexed": false,
          "internalType": "uint256",
          "name": "totalPrice",
          "type": "uint256"
        }
      ],
      "name": "Purchased",
      "type": "event"
    },
    {
      "inputs": [
        {
          "internalType": "uint256",
          "name": "offerId",
          "type": "uint256"
        }
      ],
      "name": "cancelOffer",
      "outputs": [],
      "stateMutability": "nonpayable",
      "type": "function"
    },
    {
      "inputs": [
        {
          "internalType": "uint256",
          "name": "_amount",
          "type": "uint256"
        },
        {
          "internalType": "uint256",
          "name": "_pricePerUnit",
          "type": "uint256"
        }
      ],
      "name": "createOffer",
      "outputs": [],
      "stateMutability": "nonpayable",
      "type": "function"
    },
    {
      "inputs": [],
      "name": "offerCounter",
      "outputs": [
        {
          "internalType": "uint256",
          "name": "",
          "type": "uint256"
        }
      ],
      "stateMutability": "view",
      "type": "function"
    },
    {
      "inputs": [
        {
          "internalType": "uint256",
          "name": "",
          "type": "uint256"
        }
      ],
      "name": "offers",
      "outputs": [
        {
          "internalType": "address",
          "name": "seller",
          "type": "address"
        },
        {
          "internalType": "uint256",
          "name": "amount",
          "type": "uint256"
        },
        {
          "internalType": "uint256",
          "name": "pricePerUnit",
          "type": "uint256"
        },
        {
          "internalType": "bool",
          "name": "isAvailable",
          "type": "bool"
        }
      ],
      "stateMutability": "view",
      "type": "function"
    },
    {
      "inputs": [
        {
          "internalType": "uint256",
          "name": "offerId",
          "type": "uint256"
        },
        {
          "internalType": "uint256",
          "name": "purchaseAmount",
          "type": "uint256"
        }
      ],
      "name": "purchase",
      "outputs": [],
      "stateMutability": "payable",
      "type": "function"
    },
    {
      "stateMutability": "payable",
      "type": "receive"
    }
  ],
  "bytecode": "0x6080604052348015600f57600080fd5b50610dcf8061001f6000396000f3fe60806040526004361061004e5760003560e01c80631afed8751461005a57806370876c98146100835780638a72ea6a1461009f578063b7a3c1da146100df578063ef706adf1461010a57610055565b3661005557005b600080fd5b34801561006657600080fd5b50610081600480360381019061007c919061076e565b610133565b005b61009d6004803603810190610098919061076e565b6102f3565b005b3480156100ab57600080fd5b506100c660048036038101906100c191906107ae565b610571565b6040516100d69493929190610846565b60405180910390f35b3480156100eb57600080fd5b506100f46105ce565b604051610101919061088b565b60405180910390f35b34801561011657600080fd5b50610131600480360381019061012c91906107ae565b6105d4565b005b60008211610176576040517f08c379a000000000000000000000000000000000000000000000000000000000815260040161016d90610903565b60405180910390fd5b600081116101b9576040517f08c379a00000000000000000000000000000000000000000000000000000000081526004016101b090610995565b60405180910390fd5b60405180608001604052803373ffffffffffffffffffffffffffffffffffffffff16815260200183815260200182815260200160011515815250600160008054815260200190815260200160002060008201518160000160006101000a81548173ffffffffffffffffffffffffffffffffffffffff021916908373ffffffffffffffffffffffffffffffffffffffff160217905550602082015181600101556040820151816002015560608201518160030160006101000a81548160ff0219169083151502179055509050503373ffffffffffffffffffffffffffffffffffffffff166000547fbf26a47e2418fff23bee5882ae59627d33e81fa75ab2b1fa08de6cf5f2fa376184846040516102d09291906109b5565b60405180910390a36000808154809291906102ea90610a0d565b91905055505050565b60006001600084815260200190815260200160002090508060030160009054906101000a900460ff1661035b576040517f08c379a000000000000000000000000000000000000000000000000000000000815260040161035290610aa1565b60405180910390fd5b60008211801561036f575080600101548211155b6103ae576040517f08c379a00000000000000000000000000000000000000000000000000000000081526004016103a590610b0d565b60405180910390fd5b60008160020154836103c09190610b2d565b9050803414610404576040517f08c379a00000000000000000000000000000000000000000000000000000000081526004016103fb90610bbb565b60405180910390fd5b60008260000160009054906101000a900473ffffffffffffffffffffffffffffffffffffffff1673ffffffffffffffffffffffffffffffffffffffff168260405161044e90610c0c565b60006040518083038185875af1925050503d806000811461048b576040519150601f19603f3d011682016040523d82523d6000602084013e610490565b606091505b50509050806104d4576040517f08c379a00000000000000000000000000000000000000000000000000000000081526004016104cb90610c6d565b60405180910390fd5b838360010160008282546104e89190610c8d565b9250508190555060008360010154036105195760008360030160006101000a81548160ff0219169083151502179055505b3373ffffffffffffffffffffffffffffffffffffffff16857f2d422c18b05e66a0b22c1c2b24e242e6c19cff65d89543692b3348f7f7ea18d486856040516105629291906109b5565b60405180910390a35050505050565b60016020528060005260406000206000915090508060000160009054906101000a900473ffffffffffffffffffffffffffffffffffffffff16908060010154908060020154908060030160009054906101000a900460ff16905084565b60005481565b60006001600083815260200190815260200160002090508060000160009054906101000a900473ffffffffffffffffffffffffffffffffffffffff1673ffffffffffffffffffffffffffffffffffffffff163373ffffffffffffffffffffffffffffffffffffffff161461067d576040517f08c379a000000000000000000000000000000000000000000000000000000000815260040161067490610d0d565b60405180910390fd5b8060030160009054906101000a900460ff166106ce576040517f08c379a00000000000000000000000000000000000000000000000000000000081526004016106c590610d79565b60405180910390fd5b60008160030160006101000a81548160ff0219169083151502179055503373ffffffffffffffffffffffffffffffffffffffff16827f1f51377b3e685a0e2419f9bb4ba7c07ec54936353ba3d0fb3c6538dab676622260405160405180910390a35050565b600080fd5b6000819050919050565b61074b81610738565b811461075657600080fd5b50565b60008135905061076881610742565b92915050565b6000806040838503121561078557610784610733565b5b600061079385828601610759565b92505060206107a485828601610759565b9150509250929050565b6000602082840312156107c4576107c3610733565b5b60006107d284828501610759565b91505092915050565b600073ffffffffffffffffffffffffffffffffffffffff82169050919050565b6000610806826107db565b9050919050565b610816816107fb565b82525050565b61082581610738565b82525050565b60008115159050919050565b6108408161082b565b82525050565b600060808201905061085b600083018761080d565b610868602083018661081c565b610875604083018561081c565b6108826060830184610837565b95945050505050565b60006020820190506108a0600083018461081c565b92915050565b600082825260208201905092915050565b7f416d6f756e74206d7573742062652067726561746572207468616e207a65726f600082015250565b60006108ed6020836108a6565b91506108f8826108b7565b602082019050919050565b6000602082019050818103600083015261091c816108e0565b9050919050565b7f50726963652070657220756e6974206d7573742062652067726561746572207460008201527f68616e207a65726f000000000000000000000000000000000000000000000000602082015250565b600061097f6028836108a6565b915061098a82610923565b604082019050919050565b600060208201905081810360008301526109ae81610972565b9050919050565b60006040820190506109ca600083018561081c565b6109d7602083018461081c565b9392505050565b7f4e487b7100000000000000000000000000000000000000000000000000000000600052601160045260246000fd5b6000610a1882610738565b91507fffffffffffffffffffffffffffffffffffffffffffffffffffffffffffffffff8203610a4a57610a496109de565b5b600182019050919050565b7f4f66666572206973206e6f7420617661696c61626c6500000000000000000000600082015250565b6000610a8b6016836108a6565b9150610a9682610a55565b602082019050919050565b60006020820190508181036000830152610aba81610a7e565b9050919050565b7f496e76616c696420707572636861736520616d6f756e74000000000000000000600082015250565b6000610af76017836108a6565b9150610b0282610ac1565b602082019050919050565b60006020820190508181036000830152610b2681610aea565b9050919050565b6000610b3882610738565b9150610b4383610738565b9250828202610b5181610738565b91508282048414831517610b6857610b676109de565b5b5092915050565b7f496e636f72726563742045544820616d6f756e742073656e7400000000000000600082015250565b6000610ba56019836108a6565b9150610bb082610b6f565b602082019050919050565b60006020820190508181036000830152610bd481610b98565b9050919050565b600081905092915050565b50565b6000610bf6600083610bdb565b9150610c0182610be6565b600082019050919050565b6000610c1782610be9565b9150819050919050565b7f455448207472616e7366657220746f2073656c6c6572206661696c6564000000600082015250565b6000610c57601d836108a6565b9150610c6282610c21565b602082019050919050565b60006020820190508181036000830152610c8681610c4a565b9050919050565b6000610c9882610738565b9150610ca383610738565b9250828203905081811115610cbb57610cba6109de565b5b92915050565b7f4f6e6c792073656c6c65722063616e2063616e63656c00000000000000000000600082015250565b6000610cf76016836108a6565b9150610d0282610cc1565b602082019050919050565b60006020820190508181036000830152610d2681610cea565b9050919050565b7f4f6666657220697320616c726561647920696e61637469766500000000000000600082015250565b6000610d636019836108a6565b9150610d6e82610d2d565b602082019050919050565b60006020820190508181036000830152610d9281610d56565b905091905056fea2646970667358221220597236b4da8fe74a755ffb6d8152782c46ee5b812215e1bbebbab90133fed1e364736f6c634300081c0033",
  "linkReferences": {},
  "deployedLinkReferences": {}
}