{
  "contractName": "Market",
  "abi": [
    {
      "inputs": [
        {
          "internalType": "address",
          "name": "_tokenAddress",
          "type": "address"
        }
      ],
      "stateMutability": "nonpayable",
      "type": "constructor"
    },
    {
      "anonymous": false,
      "inputs": [
        {
          "indexed": true,
          "internalType": "uint256",
          "name": "offerId",
          "type": "uint256"
        },
        {
          "indexed": true,
          "internalType": "address",
          "name": "seller",
          "type": "address"
        }
      ],
      "name": "OfferCancelled",
      "type": "event"
    },
    {
      "anonymous": false,
      "inputs": [
        {
          "indexed": true,
          "internalType": "uint256",
          "name": "offerId",
          "type": "uint256"
        },
        {
          "indexed": true,
          "internalType": "address",
          "name": "seller",
          "type": "address"
        },
        {
          "indexed": false,
          "internalType": "uint256",
          "name": "amount",
          "type": "uint256"
        },
        {
          "indexed": false,
          "internalType": "uint256",
          "name": "pricePerUnit",
          "type": "uint256"
        }
      ],
      "name": "OfferCreated",
      "type": "event"
    },
    {
      "anonymous": false,
      "inputs": [
        {
          "indexed": true,
          "internalType": "uint256",
          "name": "offerId",
          "type": "uint256"
        },
        {
          "indexed": true,
          "internalType": "address",
          "name": "buyer",
          "type": "address"
        },
        {
          "indexed": false,
          "internalType": "uint256",
          "name": "amount",
          "type": "uint256"
        },
        {
          "indexed": false,
          "internalType": "uint256",
          "name": "totalPrice",
          "type": "uint256"
        }
      ],
      "name": "Purchased",
      "type": "event"
    },
    {
      "inputs": [],
      "name": "offerCounter",
      "outputs": [
        {
          "internalType": "uint256",
          "name": "",
          "type": "uint256"
        }
      ],
      "stateMutability": "view",
      "type": "function"
    },
    {
      "inputs": [
        {
          "internalType": "uint256",
          "name": "",
          "type": "uint256"
        }
      ],
      "name": "offers",
      "outputs": [
        {
          "internalType": "address",
          "name": "seller",
          "type": "address"
        },
        {
          "internalType": "uint256",
          "name": "amount",
          "type": "uint256"
        },
        {
          "internalType": "uint256",
          "name": "pricePerUnit",
          "type": "uint256"
        },
        {
          "internalType": "bool",
          "name": "isAvailable",
          "type": "bool"
        }
      ],
      "stateMutability": "view",
      "type": "function"
    },
    {
      "inputs": [],
      "name": "token",
      "outputs": [
        {
          "internalType": "contract IERC20",
          "name": "",
          "type": "address"
        }
      ],
      "stateMutability": "view",
      "type": "function"
    },
    {
      "inputs": [
        {
          "internalType": "uint256",
          "name": "_amount",
          "type": "uint256"
        },
        {
          "internalType": "uint256",
          "name": "_pricePerUnit",
          "type": "uint256"
        }
      ],
      "name": "createOffer",
      "outputs": [],
      "stateMutability": "nonpayable",
      "type": "function"
    },
    {
      "inputs": [
        {
          "internalType": "uint256",
          "name": "offerId",
          "type": "uint256"
        },
        {
          "internalType": "uint256",
          "name": "purchaseAmount",
          "type": "uint256"
        }
      ],
      "name": "purchase",
      "outputs": [],
      "stateMutability": "nonpayable",
      "type": "function"
    },
    {
      "inputs": [
        {
          "internalType": "uint256",
          "name": "offerId",
          "type": "uint256"
        }
      ],
      "name": "cancelOffer",
      "outputs": [],
      "stateMutability": "nonpayable",
      "type": "function"
    }
  ],
  "bytecode": "0x608060405234801561000f575f80fd5b50604051610ed6380380610ed6833981810160405281019061003191906100d4565b805f806101000a81548173ffffffffffffffffffffffffffffffffffffffff021916908373ffffffffffffffffffffffffffffffffffffffff160217905550506100ff565b5f80fd5b5f73ffffffffffffffffffffffffffffffffffffffff82169050919050565b5f6100a38261007a565b9050919050565b6100b381610099565b81146100bd575f80fd5b50565b5f815190506100ce816100aa565b92915050565b5f602082840312156100e9576100e8610076565b5b5f6100f6848285016100c0565b91505092915050565b610dca8061010c5f395ff3fe608060405234801561000f575f80fd5b5060043610610060575f3560e01c80631afed8751461006457806370876c98146100805780638a72ea6a1461009c578063b7a3c1da146100cf578063ef706adf146100ed578063fc0c546a14610109575b5f80fd5b61007e6004803603810190610079919061074c565b610127565b005b61009a6004803603810190610095919061074c565b6102e0565b005b6100b660048036038101906100b1919061078a565b61053e565b6040516100c6949392919061081d565b60405180910390f35b6100d7610595565b6040516100e49190610860565b60405180910390f35b6101076004803603810190610102919061078a565b61059b565b005b6101116106f2565b60405161011e91906108d4565b60405180910390f35b5f8211610169576040517f08c379a000000000000000000000000000000000000000000000000000000000815260040161016090610947565b60405180910390fd5b5f81116101ab576040517f08c379a00000000000000000000000000000000000000000000000000000000081526004016101a2906109d5565b60405180910390fd5b60405180608001604052803373ffffffffffffffffffffffffffffffffffffffff1681526020018381526020018281526020016001151581525060025f60015481526020019081526020015f205f820151815f015f6101000a81548173ffffffffffffffffffffffffffffffffffffffff021916908373ffffffffffffffffffffffffffffffffffffffff16021790555060208201518160010155604082015181600201556060820151816003015f6101000a81548160ff0219169083151502179055509050503373ffffffffffffffffffffffffffffffffffffffff166001547fbf26a47e2418fff23bee5882ae59627d33e81fa75ab2b1fa08de6cf5f2fa376184846040516102bd9291906109f3565b60405180910390a360015f8154809291906102d790610a47565b91905055505050565b5f60025f8481526020019081526020015f209050806003015f9054906101000a900460ff16610344576040517f08c379a000000000000000000000000000000000000000000000000000000000815260040161033b90610ad8565b60405180910390fd5b5f82118015610357575080600101548211155b610396576040517f08c379a000000000000000000000000000000000000000000000000000000000815260040161038d90610b40565b60405180910390fd5b5f8160020154836103a79190610b5e565b90505f8054906101000a900473ffffffffffffffffffffffffffffffffffffffff1673ffffffffffffffffffffffffffffffffffffffff166323b872dd33845f015f9054906101000a900473ffffffffffffffffffffffffffffffffffffffff16846040518463ffffffff1660e01b815260040161042793929190610b9f565b6020604051808303815f875af1158015610443573d5f803e3d5ffd5b505050506040513d601f19601f820116820180604052508101906104679190610bfe565b6104a6576040517f08c379a000000000000000000000000000000000000000000000000000000000815260040161049d90610c73565b60405180910390fd5b82826001015f8282546104b99190610c91565b925050819055505f8260010154036104e7575f826003015f6101000a81548160ff0219169083151502179055505b3373ffffffffffffffffffffffffffffffffffffffff16847f2d422c18b05e66a0b22c1c2b24e242e6c19cff65d89543692b3348f7f7ea18d485846040516105309291906109f3565b60405180910390a350505050565b6002602052805f5260405f205f91509050805f015f9054906101000a900473ffffffffffffffffffffffffffffffffffffffff1690806001015490806002015490806003015f9054906101000a900460ff16905084565b60015481565b5f60025f8381526020019081526020015f209050805f015f9054906101000a900473ffffffffffffffffffffffffffffffffffffffff1673ffffffffffffffffffffffffffffffffffffffff163373ffffffffffffffffffffffffffffffffffffffff161461063f576040517f08c379a000000000000000000000000000000000000000000000000000000000815260040161063690610d0e565b60405180910390fd5b806003015f9054906101000a900460ff1661068f576040517f08c379a000000000000000000000000000000000000000000000000000000000815260040161068690610d76565b60405180910390fd5b5f816003015f6101000a81548160ff0219169083151502179055503373ffffffffffffffffffffffffffffffffffffffff16827f1f51377b3e685a0e2419f9bb4ba7c07ec54936353ba3d0fb3c6538dab676622260405160405180910390a35050565b5f8054906101000a900473ffffffffffffffffffffffffffffffffffffffff1681565b5f80fd5b5f819050919050565b61072b81610719565b8114610735575f80fd5b50565b5f8135905061074681610722565b92915050565b5f806040838503121561076257610761610715565b5b5f61076f85828601610738565b925050602061078085828601610738565b9150509250929050565b5f6020828403121561079f5761079e610715565b5b5f6107ac84828501610738565b91505092915050565b5f73ffffffffffffffffffffffffffffffffffffffff82169050919050565b5f6107de826107b5565b9050919050565b6107ee816107d4565b82525050565b6107fd81610719565b82525050565b5f8115159050919050565b61081781610803565b82525050565b5f6080820190506108305f8301876107e5565b61083d60208301866107f4565b61084a60408301856107f4565b610857606083018461080e565b95945050505050565b5f6020820190506108735f8301846107f4565b92915050565b5f819050919050565b5f61089c610897610892846107b5565b610879565b6107b5565b9050919050565b5f6108ad82610882565b9050919050565b5f6108be826108a3565b9050919050565b6108ce816108b4565b82525050565b5f6020820190506108e75f8301846108c5565b92915050565b5f82825260208201905092915050565b7f416d6f756e74206d7573742062652067726561746572207468616e207a65726f5f82015250565b5f6109316020836108ed565b915061093c826108fd565b602082019050919050565b5f6020820190508181035f83015261095e81610925565b9050919050565b7f50726963652070657220756e6974206d757374206265206772656174657220745f8201527f68616e207a65726f000000000000000000000000000000000000000000000000602082015250565b5f6109bf6028836108ed565b91506109ca82610965565b604082019050919050565b5f6020820190508181035f8301526109ec816109b3565b9050919050565b5f604082019050610a065f8301856107f4565b610a1360208301846107f4565b9392505050565b7f4e487b71000000000000000000000000000000000000000000000000000000005f52601160045260245ffd5b5f610a5182610719565b91507fffffffffffffffffffffffffffffffffffffffffffffffffffffffffffffffff8203610a8357610a82610a1a565b5b600182019050919050565b7f4f66666572206973206e6f7420617661696c61626c65000000000000000000005f82015250565b5f610ac26016836108ed565b9150610acd82610a8e565b602082019050919050565b5f6020820190508181035f830152610aef81610ab6565b9050919050565b7f496e76616c696420707572636861736520616d6f756e740000000000000000005f82015250565b5f610b2a6017836108ed565b9150610b3582610af6565b602082019050919050565b5f6020820190508181035f830152610b5781610b1e565b9050919050565b5f610b6882610719565b9150610b7383610719565b9250828202610b8181610719565b91508282048414831517610b9857610b97610a1a565b5b5092915050565b5f606082019050610bb25f8301866107e5565b610bbf60208301856107e5565b610bcc60408301846107f4565b949350505050565b610bdd81610803565b8114610be7575f80fd5b50565b5f81519050610bf881610bd4565b92915050565b5f60208284031215610c1357610c12610715565b5b5f610c2084828501610bea565b91505092915050565b7f5061796d656e74206661696c65640000000000000000000000000000000000005f82015250565b5f610c5d600e836108ed565b9150610c6882610c29565b602082019050919050565b5f6020820190508181035f830152610c8a81610c51565b9050919050565b5f610c9b82610719565b9150610ca683610719565b9250828203905081811115610cbe57610cbd610a1a565b5b92915050565b7f4f6e6c792073656c6c65722063616e2063616e63656c000000000000000000005f82015250565b5f610cf86016836108ed565b9150610d0382610cc4565b602082019050919050565b5f6020820190508181035f830152610d2581610cec565b9050919050565b7f4f6666657220697320616c726561647920696e616374697665000000000000005f82015250565b5f610d606019836108ed565b9150610d6b82610d2c565b602082019050919050565b5f6020820190508181035f830152610d8d81610d54565b905091905056fea264697066735822122039cde1926c0b7a139c0c48a5ed536107a476fb7ee8aaad1961023d6e3b241c6d64736f6c63430008150033",
  "immutableReferences": {},
  "source": "// SPDX-License-Identifier: MIT\npragma solidity ^0.8.20;\n\ninterface IERC20 {\n    function transferFrom(address sender, address recipient, uint256 amount) external returns (bool);\n    function transfer(address recipient, uint256 amount) external returns (bool);\n}\n\ncontract Market {\n    struct Offer {\n        address seller;\n        uint256 amount; // kWh\n        uint256 pricePerUnit; // \n        bool isAvailable;\n    }\n\n    IERC20 public token; // ERC20\n    uint256 public offerCounter;\n    mapping(uint256 => Offer) public offers;\n\n    event OfferCreated(uint256 indexed offerId, address indexed seller, uint256 amount, uint256 pricePerUnit);\n    event OfferCancelled(uint256 indexed offerId, address indexed seller);\n    event Purchased(uint256 indexed offerId, address indexed buyer, uint256 amount, uint256 totalPrice);\n\n    constructor(address _tokenAddress) {\n        token = IERC20(_tokenAddress);\n    }\n\n    // \n    function createOffer(uint256 _amount, uint256 _pricePerUnit) external {\n        require(_amount > 0, \"Amount must be greater than zero\");\n        require(_pricePerUnit > 0, \"Price per unit must be greater than zero\");\n\n        offers[offerCounter] = Offer({\n            seller: msg.sender,\n            amount: _amount,\n            pricePerUnit: _pricePerUnit,\n            isAvailable: true\n        });\n\n        emit OfferCreated(offerCounter, msg.sender, _amount, _pricePerUnit);\n        offerCounter++;\n    }\n\n    // \n    function purchase(uint256 offerId, uint256 purchaseAmount) external {\n        Offer storage offer = offers[offerId];\n        require(offer.isAvailable, \"Offer is not available\");\n        require(purchaseAmount > 0 && purchaseAmount <= offer.amount, \"Invalid purchase amount\");\n\n        uint256 totalPrice = purchaseAmount * offer.pricePerUnit;\n\n        // \n        require(token.transferFrom(msg.sender, offer.seller, totalPrice), \"Payment failed\");\n\n        offer.amount -= purchaseAmount;\n        if (offer.amount == 0) {\n            offer.isAvailable = false;\n        }\n\n        emit Purchased(offerId, msg.sender, purchaseAmount, totalPrice);\n    }\n\n    // \n    function cancelOffer(uint256 offerId) external {\n        Offer storage offer = offers[offerId];\n        require(msg.sender == offer.seller, \"Only seller can cancel\");\n        require(offer.isAvailable, \"Offer is already inactive\");\n\n        offer.isAvailable = false;\n        emit OfferCancelled(offerId, msg.sender);\n    }\n}\n",
  "sourcePath": "/Users/hongkang/github/mylakehead/contract/contracts/market.sol",
  "compiler": {
    "name": "solc",
    "version": "0.8.21+commit.d9974bed.Emscripten.clang"
  },
  "schemaVersion": "3.4.16",
  "updatedAt": "2025-02-01T04:25:32.680Z",
  "devdoc": {
    "kind": "dev",
    "methods": {},
    "version": 1
  },
  "userdoc": {
    "kind": "user",
    "methods": {},
    "version": 1
  }
}